:020000040800F2
:1000000044100020F5030008F5030008F50300087C
:10001000F5030008F503000880B500AF044B00228B
:100020001A7000F01BF900F075F800BF80BD00BF2A
:100030002000002080B500AF104B01221A7008E0AC
:100040000F4BD3E90023501E43F1FF310C4BC3E9A2
:1000500000010B4BD3E900231343F1D1084941F2CE
:1000600088324FF00003C1E9002300F0F7F800F0F8
:1000700051F8044B044A1A6000BF80BD20000020E4
:1000800028000020000000201900000880B500AF03
:10009000094B1B78002B0DD100F0D2F800F02CF8A2
:1000A000064941F288324FF00003C1E90023044BB6
:1000B000044A1A6000BF80BD2000002028000020F4
:1000C000000000203500000880B500AF034B01227E
:1000D0001A70002000F046F800BF80BD0400002028
:1000E00080B500AF034B00221A70012000F03AF8EF
:1000F00000BF80BD0400002080B400AF034B044A61
:100100001A6000BFBD4680BC704700BF08000020D9
:10011000E100000880B400AF034B044A1A6000BF3E
:10012000BD4680BC704700BF08000020C900000821
:1001300080B400AF084B1B680133074A1360074BBC
:100140001B68DBB21A46064B1A60044B1B68DBB215
:100150001846BD4680BC70473400002008080140A6
:100160003000002080B483B000AF78607B68012B42
:1001700006D10A4B1B68094A43F40053136008E098
:100180007B68002B05D1054B1B68044A23F4005300
:10019000136000BF0C37BD4680BC70470C0801409F
:1001A00080B483B000AF174B1B68164A43F00403BA
:1001B000136000237B6000237B6002E07B680133D7
:1001C0007B607B6842F20F729342F7DD0E4B1B6837
:1001D0000D4A23F4700313600B4B0B4A1B6813602A
:1001E0000A4B1B68094A23F470031360074B1B6812
:1001F000064A43F02233136000BF0C37BD4680BC73
:10020000704700BF18100240000801400408014078
:1002100080B500AF034B01221A700020FFF7A2FF48
:1002200000BF80BD0C00002080B500AF034B002252
:100230001A700120FFF796FF00BF80BD0C00002060
:1002400080B400AF034B044A1A6000BFBD4680BCB7
:10025000704700BF100000202902000880B400AFE2
:10026000034B044A1A6000BFBD4680BC704700BF04
:10027000100000201102000880B500AFFFF790FFCA
:10028000074B1B689847074B1B689847064B1B6832
:100290009847064B1B689847054B1B689847EFE744
:1002A000180000201400002000000020080000209A
:1002B0001000002080B400AF044B00221A70044BE1
:1002C000044A1A6000BFBD4680BC70473800002059
:1002D00014000020D902000880B500AF054B0122B0
:1002E0001A70054B1B681422934201D9FFF7CEFE0A
:1002F00000BF80BD380000203C00002080B483B0E7
:1003000000AF7860034A7B68136000BF0C37BD46BE
:1003100080BC70473C00002080B400AF044B00223A
:100320001A70044B044A1A6000BFBD4680BC704777
:1003300040000020180000203D03000880B582B076
:1003400000AF084B01221A70FFF7F2FE03467B60F4
:100350007868FFF7D3FF044B044A1A6000BF0837E0
:10036000BD4680BD40000020180000203D0300086D
:1003700080B584B000AF1A4A1A4BD31A3B60194BB0
:100380007B600023FB6008E07B6800221A707B68BA
:1003900001337B60FB680133FB60FA683B689A427B
:1003A000F2D3114A114BD31A3B60114BBB600F4B78
:1003B0007B600023FB600CE0BB681A787B681A70D6
:1003C000BB680133BB607B6801337B60FB68013332
:1003D000FB60FA683B689A42EED3FFF74DFFFEE7F9
:1003E00044000020200000201C000020000000200D
:1003F0000404000880B500AFFFF7BAFF00BF80BD5E
:0404000014000000E4
:100404001900000801000000C900000801000000F4
:0C04140011020008B502000819030008DE
:0400000508000000EF
:00000001FF
