:020000040800F2
:1000000044100020E9040008E9040008E90400089D
:10001000E9040008E904000880B500AF40F22003BD
:10002000C2F200034FF000021A7000F063F900F012
:100030008BF880BD80B500AF40F22003C2F2000310
:100040004FF001021A7012E040F22803C2F20003DE
:10005000D3E900014FF0FF324FF0FF33801841EB3E
:10006000030140F22803C2F20003C3E9000140F299
:100070002803C2F20003D3E9002352EA0301E3D1CB
:1000800040F22803C2F2000341F288304FF0000131
:10009000C3E9000100F02EF900F056F840F2000329
:1000A000C2F2000340F21902C0F600021A6080BDDD
:1000B00080B500AF40F22003C2F200031B78002B92
:1000C00016D100F009F900F031F840F22803C2F22D
:1000D000000341F288304FF00001C3E9000140F213
:1000E0000003C2F2000340F23502C0F600021A60BB
:1000F00080BD00BF80B500AF40F20403C2F2000330
:100100004FF001021A704FF0000000F04FF880BD70
:1001100080B500AF40F20403C2F200034FF00002CA
:100120001A704FF0010000F041F880BD80B400AFBC
:1001300040F20803C2F2000340F21112C0F60002BE
:100140001A60BD4680BC704780B400AF40F208031F
:10015000C2F2000340F2F502C0F600021A60BD468A
:1001600080BC704780B400AF40F23403C2F2000399
:100170001B6803F1010240F23403C2F200031A606B
:1001800040F60803C4F201031B68DBB21A4640F2D2
:100190003003C2F200031A6040F60803C4F2010300
:1001A0001B68DBB21846BD4680BC704780B483B084
:1001B00000AF78607B68012B0CD140F60C03C4F2D1
:1001C000010340F60C02C4F20102126842F400522C
:1001D0001A600EE07B68002B0BD140F60C03C4F2D2
:1001E000010340F60C02C4F20102126822F400522C
:1001F0001A6007F10C07BD4680BC704780B483B01D
:1002000000AF41F21803C4F2020341F21802C4F233
:100210000202126842F004021A604FF000037B6091
:100220004FF000037B6003E07B6803F101037B6018
:100230007A6842F20F739A42F6DD4FF40063C4F21B
:1002400001034FF40062C4F20102126822F470024A
:100250001A604FF40063C4F201034FF40062C4F269
:10026000010212681A6040F60403C4F2010340F66A
:100270000402C4F20102126822F470021A6040F60D
:100280000403C4F2010340F60402C4F2010212683E
:1002900042F022321A6007F10C07BD4680BC70475D
:1002A00080B500AF40F20C03C2F200034FF0010230
:1002B0001A704FF00000FFF779FF80BD80B500AFE6
:1002C00040F20C03C2F200034FF000021A704FF02C
:1002D0000100FFF76BFF80BD80B400AF40F2100358
:1002E000C2F2000340F2BD22C0F600021A60BD4611
:1002F00080BC704780B400AF40F21003C2F200032C
:1003000040F2A122C0F600021A60BD4680BC7047D0
:1003100080B500AFFFF772FF40F21803C2F200038E
:100320001B68984740F21403C2F200031B68984709
:1003300040F20003C2F200031B68984740F2080332
:10034000C2F200031B68984740F21003C2F2000398
:100350001B689847E0E700BF80B400AF40F2380365
:10036000C2F200034FF000021A7040F21403C2F20E
:10037000000340F28532C0F600021A60BD4680BC20
:10038000704700BF80B500AF40F23803C2F20003EF
:100390004FF001021A7040F23C03C2F200031A68E7
:1003A00040F2F443C0F600031B689A4201D9FFF7FC
:1003B0007FFE80BD80B483B000AF786040F23C0324
:1003C000C2F200037A681A6007F10C07BD4680BCD0
:1003D000704700BF80B400AF40F24003C2F2000398
:1003E0004FF000021A7040F21803C2F2000340F20C
:1003F0000142C0F600021A60BD4680BC704700BFD3
:1004000080B582B000AF40F24003C2F200034FF06B
:1004100001021A70FFF7A6FE03467B607868FFF7BB
:10042000C9FF40F21803C2F2000340F20142C0F6D5
:1004300000021A6007F10807BD4680BD80B584B090
:1004400000AF40F24402C2F2000240F22003C2F2C6
:100450000003D31A3B6040F22003C2F200037B602A
:100460004FF00003FB600BE07B684FF000021A7056
:100470007B6803F101037B60FB6803F10103FB6010
:10048000FA683B689A42EFD340F21C02C2F20002C3
:1004900040F20003C2F20003D31A3B6040F2F8437B
:1004A000C0F60003BB6040F20003C2F200037B60B1
:1004B0004FF00003FB600FE0BB681A787B681A708E
:1004C000BB6803F10103BB607B6803F101037B6040
:1004D000FB6803F10103FB60FA683B689A42EBD3C7
:1004E000FFF716FFFEE700BF80B500AFFFF7A6FFDE
:0404F00080BD00BF0C
:0404F40014000000F0
:1004F8001900000801000000F500000801000000D4
:0C050800A102000859030008D5030008F8
:0400000508000000EF
:00000001FF
