:020000040800F2
:1000000000180020010200085102000851020008F7
:1000100051020008510200085102000800000000CF
:100020000000000000000000000000005102000875
:1000300051020008000000005102000851020008AF
:100040005102000851020008510200085102000844
:100050005102000851020008510200085102000834
:100060005102000851020008510200085102000824
:100070005102000851020008510200085102000814
:100080005102000851020008510200085102000804
:1000900051020008510200085102000851020008F4
:1000A00051020008510200085102000851020008E4
:1000B00051020008510200085102000851020008D4
:1000C00051020008510200085102000851020008C4
:1000D00051020008510200085102000851020008B4
:1000E00051020008510200080000000051020008FF
:1000F0005102000851020008510200085102000894
:100100005102000851020008510200085102000883
:100110005102000851020008510200085102000873
:100120005102000851020008510200085102000863
:1001300010B5054C237833B9044B13B10448AFF321
:1001400000800123237010BD00000020000000008B
:100150009C02000808B5034B1BB103490348AFF3E9
:10016000008008BD00000000040000209C02000880
:1001700080B483B000AF1E4B1B681D4A43F00403DC
:1001800013601C4B1B681B4A23F480131360194B2C
:100190001B68184A43F400131360164B1B68154A7A
:1001A00023F480031360134B1B68124A23F40003EB
:1001B0001360114B1B68104A43F400531360002373
:1001C0007B6000BF7B685A1C7A600C4A9342F9D965
:1001D000094B1B68084A23F40053136000233B605B
:1001E00000BF3B685A1C3A60044A9342F9D9E0E7E1
:1001F00018100240040801400C0801409F860100CD
:100200000D488546AFF300800C480D490D4A002388
:1002100002E0D458C4500433C4188C42F9D30A4ABB
:100220000A4C002301E013600432A242FBD300F029
:1002300011F8FFF79DFFFEE70018002000000020E6
:1002400000000020BC020008000000201C0000206C
:10025000FEE7000070B500250C4E0D4CA41BA41049
:10026000A54209D100F01AF800250A4E0A4CA41B39
:10027000A410A54205D170BD56F825309847013528
:10028000EEE756F8253098470135F2E7B40200084A
:10029000B4020008B4020008B8020008F8B500BFB4
:1002A000F8BC08BC9E467047F8B500BFF8BC08BC57
:0402B0009E467047AF
:0402B40055010008E8
:0402B8003101000808
:0400000508000201EC
:00000001FF
